{
  "_format": "hh-sol-artifact-1",
  "contractName": "RewardRouterV2",
  "sourceName": "contracts/staking/RewardRouterV2.sol",
  "abi": [
    {
      "anonymous": false,
      "inputs": [
        {
          "indexed": false,
          "internalType": "address",
          "name": "account",
          "type": "address"
        },
        {
          "indexed": false,
          "internalType": "uint256",
          "name": "amount",
          "type": "uint256"
        }
      ],
      "name": "StakeUlp",
      "type": "event"
    },
    {
      "anonymous": false,
      "inputs": [
        {
          "indexed": false,
          "internalType": "address",
          "name": "account",
          "type": "address"
        },
        {
          "indexed": false,
          "internalType": "address",
          "name": "token",
          "type": "address"
        },
        {
          "indexed": false,
          "internalType": "uint256",
          "name": "amount",
          "type": "uint256"
        }
      ],
      "name": "StakeUnity",
      "type": "event"
    },
    {
      "anonymous": false,
      "inputs": [
        {
          "indexed": false,
          "internalType": "address",
          "name": "account",
          "type": "address"
        },
        {
          "indexed": false,
          "internalType": "uint256",
          "name": "amount",
          "type": "uint256"
        }
      ],
      "name": "UnstakeUlp",
      "type": "event"
    },
    {
      "anonymous": false,
      "inputs": [
        {
          "indexed": false,
          "internalType": "address",
          "name": "account",
          "type": "address"
        },
        {
          "indexed": false,
          "internalType": "address",
          "name": "token",
          "type": "address"
        },
        {
          "indexed": false,
          "internalType": "uint256",
          "name": "amount",
          "type": "uint256"
        }
      ],
      "name": "UnstakeUnity",
      "type": "event"
    },
    {
      "inputs": [
        {
          "internalType": "address",
          "name": "_sender",
          "type": "address"
        }
      ],
      "name": "acceptTransfer",
      "outputs": [],
      "stateMutability": "nonpayable",
      "type": "function"
    },
    {
      "inputs": [
        {
          "internalType": "address[]",
          "name": "_accounts",
          "type": "address[]"
        }
      ],
      "name": "batchCompoundForAccounts",
      "outputs": [],
      "stateMutability": "nonpayable",
      "type": "function"
    },
    {
      "inputs": [
        {
          "internalType": "address[]",
          "name": "_accounts",
          "type": "address[]"
        },
        {
          "internalType": "uint256[]",
          "name": "_amounts",
          "type": "uint256[]"
        }
      ],
      "name": "batchStakeUnityForAccount",
      "outputs": [],
      "stateMutability": "nonpayable",
      "type": "function"
    },
    {
      "inputs": [],
      "name": "bnUnity",
      "outputs": [
        {
          "internalType": "address",
          "name": "",
          "type": "address"
        }
      ],
      "stateMutability": "view",
      "type": "function"
    },
    {
      "inputs": [],
      "name": "bonusUnityTracker",
      "outputs": [
        {
          "internalType": "address",
          "name": "",
          "type": "address"
        }
      ],
      "stateMutability": "view",
      "type": "function"
    },
    {
      "inputs": [],
      "name": "claim",
      "outputs": [],
      "stateMutability": "nonpayable",
      "type": "function"
    },
    {
      "inputs": [],
      "name": "claimEsUnity",
      "outputs": [],
      "stateMutability": "nonpayable",
      "type": "function"
    },
    {
      "inputs": [],
      "name": "claimFees",
      "outputs": [],
      "stateMutability": "nonpayable",
      "type": "function"
    },
    {
      "inputs": [],
      "name": "compound",
      "outputs": [],
      "stateMutability": "nonpayable",
      "type": "function"
    },
    {
      "inputs": [
        {
          "internalType": "address",
          "name": "_account",
          "type": "address"
        }
      ],
      "name": "compoundForAccount",
      "outputs": [],
      "stateMutability": "nonpayable",
      "type": "function"
    },
    {
      "inputs": [],
      "name": "esUnity",
      "outputs": [
        {
          "internalType": "address",
          "name": "",
          "type": "address"
        }
      ],
      "stateMutability": "view",
      "type": "function"
    },
    {
      "inputs": [],
      "name": "feeUlpTracker",
      "outputs": [
        {
          "internalType": "address",
          "name": "",
          "type": "address"
        }
      ],
      "stateMutability": "view",
      "type": "function"
    },
    {
      "inputs": [],
      "name": "feeUnityTracker",
      "outputs": [
        {
          "internalType": "address",
          "name": "",
          "type": "address"
        }
      ],
      "stateMutability": "view",
      "type": "function"
    },
    {
      "inputs": [],
      "name": "gov",
      "outputs": [
        {
          "internalType": "address",
          "name": "",
          "type": "address"
        }
      ],
      "stateMutability": "view",
      "type": "function"
    },
    {
      "inputs": [
        {
          "internalType": "bool",
          "name": "_shouldClaimUnity",
          "type": "bool"
        },
        {
          "internalType": "bool",
          "name": "_shouldStakeUnity",
          "type": "bool"
        },
        {
          "internalType": "bool",
          "name": "_shouldClaimEsUnity",
          "type": "bool"
        },
        {
          "internalType": "bool",
          "name": "_shouldStakeEsUnity",
          "type": "bool"
        },
        {
          "internalType": "bool",
          "name": "_shouldStakeMultiplierPoints",
          "type": "bool"
        },
        {
          "internalType": "bool",
          "name": "_shouldClaimWeth",
          "type": "bool"
        },
        {
          "internalType": "bool",
          "name": "_shouldConvertWethToEth",
          "type": "bool"
        }
      ],
      "name": "handleRewards",
      "outputs": [],
      "stateMutability": "nonpayable",
      "type": "function"
    },
    {
      "inputs": [
        {
          "internalType": "address",
          "name": "_weth",
          "type": "address"
        },
        {
          "internalType": "address",
          "name": "_unity",
          "type": "address"
        },
        {
          "internalType": "address",
          "name": "_esUnity",
          "type": "address"
        },
        {
          "internalType": "address",
          "name": "_bnUnity",
          "type": "address"
        },
        {
          "internalType": "address",
          "name": "_ulp",
          "type": "address"
        },
        {
          "internalType": "address",
          "name": "_stakedUnityTracker",
          "type": "address"
        },
        {
          "internalType": "address",
          "name": "_bonusUnityTracker",
          "type": "address"
        },
        {
          "internalType": "address",
          "name": "_feeUnityTracker",
          "type": "address"
        },
        {
          "internalType": "address",
          "name": "_feeUlpTracker",
          "type": "address"
        },
        {
          "internalType": "address",
          "name": "_stakedUlpTracker",
          "type": "address"
        },
        {
          "internalType": "address",
          "name": "_ulpManager",
          "type": "address"
        },
        {
          "internalType": "address",
          "name": "_unityVester",
          "type": "address"
        },
        {
          "internalType": "address",
          "name": "_ulpVester",
          "type": "address"
        }
      ],
      "name": "initialize",
      "outputs": [],
      "stateMutability": "nonpayable",
      "type": "function"
    },
    {
      "inputs": [],
      "name": "isInitialized",
      "outputs": [
        {
          "internalType": "bool",
          "name": "",
          "type": "bool"
        }
      ],
      "stateMutability": "view",
      "type": "function"
    },
    {
      "inputs": [
        {
          "internalType": "address",
          "name": "_token",
          "type": "address"
        },
        {
          "internalType": "uint256",
          "name": "_amount",
          "type": "uint256"
        },
        {
          "internalType": "uint256",
          "name": "_minUsdg",
          "type": "uint256"
        },
        {
          "internalType": "uint256",
          "name": "_minUlp",
          "type": "uint256"
        }
      ],
      "name": "mintAndStakeUlp",
      "outputs": [
        {
          "internalType": "uint256",
          "name": "",
          "type": "uint256"
        }
      ],
      "stateMutability": "nonpayable",
      "type": "function"
    },
    {
      "inputs": [
        {
          "internalType": "uint256",
          "name": "_minUsdg",
          "type": "uint256"
        },
        {
          "internalType": "uint256",
          "name": "_minUlp",
          "type": "uint256"
        }
      ],
      "name": "mintAndStakeUlpETH",
      "outputs": [
        {
          "internalType": "uint256",
          "name": "",
          "type": "uint256"
        }
      ],
      "stateMutability": "payable",
      "type": "function"
    },
    {
      "inputs": [
        {
          "internalType": "address",
          "name": "",
          "type": "address"
        }
      ],
      "name": "pendingReceivers",
      "outputs": [
        {
          "internalType": "address",
          "name": "",
          "type": "address"
        }
      ],
      "stateMutability": "view",
      "type": "function"
    },
    {
      "inputs": [
        {
          "internalType": "address",
          "name": "_gov",
          "type": "address"
        }
      ],
      "name": "setGov",
      "outputs": [],
      "stateMutability": "nonpayable",
      "type": "function"
    },
    {
      "inputs": [
        {
          "internalType": "address",
          "name": "_receiver",
          "type": "address"
        }
      ],
      "name": "signalTransfer",
      "outputs": [],
      "stateMutability": "nonpayable",
      "type": "function"
    },
    {
      "inputs": [
        {
          "internalType": "uint256",
          "name": "_amount",
          "type": "uint256"
        }
      ],
      "name": "stakeEsUnity",
      "outputs": [],
      "stateMutability": "nonpayable",
      "type": "function"
    },
    {
      "inputs": [
        {
          "internalType": "uint256",
          "name": "_amount",
          "type": "uint256"
        }
      ],
      "name": "stakeUnity",
      "outputs": [],
      "stateMutability": "nonpayable",
      "type": "function"
    },
    {
      "inputs": [
        {
          "internalType": "address",
          "name": "_account",
          "type": "address"
        },
        {
          "internalType": "uint256",
          "name": "_amount",
          "type": "uint256"
        }
      ],
      "name": "stakeUnityForAccount",
      "outputs": [],
      "stateMutability": "nonpayable",
      "type": "function"
    },
    {
      "inputs": [],
      "name": "stakedUlpTracker",
      "outputs": [
        {
          "internalType": "address",
          "name": "",
          "type": "address"
        }
      ],
      "stateMutability": "view",
      "type": "function"
    },
    {
      "inputs": [],
      "name": "stakedUnityTracker",
      "outputs": [
        {
          "internalType": "address",
          "name": "",
          "type": "address"
        }
      ],
      "stateMutability": "view",
      "type": "function"
    },
    {
      "inputs": [],
      "name": "ulp",
      "outputs": [
        {
          "internalType": "address",
          "name": "",
          "type": "address"
        }
      ],
      "stateMutability": "view",
      "type": "function"
    },
    {
      "inputs": [],
      "name": "ulpManager",
      "outputs": [
        {
          "internalType": "address",
          "name": "",
          "type": "address"
        }
      ],
      "stateMutability": "view",
      "type": "function"
    },
    {
      "inputs": [],
      "name": "ulpVester",
      "outputs": [
        {
          "internalType": "address",
          "name": "",
          "type": "address"
        }
      ],
      "stateMutability": "view",
      "type": "function"
    },
    {
      "inputs": [],
      "name": "unity",
      "outputs": [
        {
          "internalType": "address",
          "name": "",
          "type": "address"
        }
      ],
      "stateMutability": "view",
      "type": "function"
    },
    {
      "inputs": [],
      "name": "unityVester",
      "outputs": [
        {
          "internalType": "address",
          "name": "",
          "type": "address"
        }
      ],
      "stateMutability": "view",
      "type": "function"
    },
    {
      "inputs": [
        {
          "internalType": "address",
          "name": "_tokenOut",
          "type": "address"
        },
        {
          "internalType": "uint256",
          "name": "_ulpAmount",
          "type": "uint256"
        },
        {
          "internalType": "uint256",
          "name": "_minOut",
          "type": "uint256"
        },
        {
          "internalType": "address",
          "name": "_receiver",
          "type": "address"
        }
      ],
      "name": "unstakeAndRedeemUlp",
      "outputs": [
        {
          "internalType": "uint256",
          "name": "",
          "type": "uint256"
        }
      ],
      "stateMutability": "nonpayable",
      "type": "function"
    },
    {
      "inputs": [
        {
          "internalType": "uint256",
          "name": "_ulpAmount",
          "type": "uint256"
        },
        {
          "internalType": "uint256",
          "name": "_minOut",
          "type": "uint256"
        },
        {
          "internalType": "address payable",
          "name": "_receiver",
          "type": "address"
        }
      ],
      "name": "unstakeAndRedeemUlpETH",
      "outputs": [
        {
          "internalType": "uint256",
          "name": "",
          "type": "uint256"
        }
      ],
      "stateMutability": "nonpayable",
      "type": "function"
    },
    {
      "inputs": [
        {
          "internalType": "uint256",
          "name": "_amount",
          "type": "uint256"
        }
      ],
      "name": "unstakeEsUnity",
      "outputs": [],
      "stateMutability": "nonpayable",
      "type": "function"
    },
    {
      "inputs": [
        {
          "internalType": "uint256",
          "name": "_amount",
          "type": "uint256"
        }
      ],
      "name": "unstakeUnity",
      "outputs": [],
      "stateMutability": "nonpayable",
      "type": "function"
    },
    {
      "inputs": [],
      "name": "weth",
      "outputs": [
        {
          "internalType": "address",
          "name": "",
          "type": "address"
        }
      ],
      "stateMutability": "view",
      "type": "function"
    },
    {
      "inputs": [
        {
          "internalType": "address",
          "name": "_token",
          "type": "address"
        },
        {
          "internalType": "address",
          "name": "_account",
          "type": "address"
        },
        {
          "internalType": "uint256",
          "name": "_amount",
          "type": "uint256"
        }
      ],
      "name": "withdrawToken",
      "outputs": [],
      "stateMutability": "nonpayable",
      "type": "function"
    },
    {
      "stateMutability": "payable",
      "type": "receive"
    }
  ],
  "bytecode": "0x608060405234801561001057600080fd5b506001600081905580546001600160a01b031916331790556153b6806100376000396000f3fe6080604052600436106101b95760003560e01c806301e336671461021d578063110504651461026057806312d43a51146102915780631785ebf8146102a65780631af276a6146102bb5780632a9f4083146103695780632fdd983d1461039c57806330b70002146104375780633768d825146104935780633866a564146104a8578063392e53cd146104f95780633c5b7908146105225780633fc8cef31461053757806345dc4ec31461054c5780634e71d92d146105615780635fb1381314610576578063655603a414610599578063755ede77146105cc5780637fc16178146105e15780638145519a146105f6578063824db32e1461060b5780638f0b477a14610650578063989af122146106655780639c677f0e14610795578063a042c46a146107bf578063c26fe8d9146107d4578063cb95ae89146107e9578063cd39603c14610813578063ce3a5a241461084c578063cfad57a214610876578063d294f093146108a9578063d311e254146108be578063d63549f1146108d3578063e1b9db89146108e8578063e56b6a211461091b578063ef9aacfd14610945578063f319496114610978578063f69e2046146109bf57610218565b36610218576002546001600160a01b03163314610216576040805162461bcd60e51b81526020600482015260166024820152752937baba32b91d1034b73b30b634b21039b2b73232b960511b604482015290519081900360640190fd5b005b600080fd5b34801561022957600080fd5b506102166004803603606081101561024057600080fd5b506001600160a01b038135811691602081013590911690604001356109d4565b34801561026c57600080fd5b50610275610a3a565b604080516001600160a01b039092168252519081900360200190f35b34801561029d57600080fd5b50610275610a49565b3480156102b257600080fd5b50610275610a58565b3480156102c757600080fd5b50610216600480360360208110156102de57600080fd5b810190602081018135600160201b8111156102f857600080fd5b82018360208201111561030a57600080fd5b803590602001918460208302840111600160201b8311171561032b57600080fd5b919080806020026020016040519081016040528093929190818152602001838360200280828437600092019190915250929550610a67945050505050565b34801561037557600080fd5b506102166004803603602081101561038c57600080fd5b50356001600160a01b0316610b38565b3480156103a857600080fd5b5061021660048036036101a08110156103c057600080fd5b506001600160a01b038135811691602081013582169160408201358116916060810135821691608082013581169160a081013582169160c082013581169160e08101358216916101008201358116916101208101358216916101408201358116916101608101358216916101809091013516610be1565b34801561044357600080fd5b50610216600480360360e081101561045a57600080fd5b508035151590602081013515159060408101351515906060810135151590608081013515159060a081013515159060c001351515610d6e565b34801561049f57600080fd5b50610275611430565b3480156104b457600080fd5b506104e7600480360360608110156104cb57600080fd5b50803590602081013590604001356001600160a01b031661143f565b60408051918252519081900360200190f35b34801561050557600080fd5b5061050e611728565b604080519115158252519081900360200190f35b34801561052e57600080fd5b50610275611738565b34801561054357600080fd5b50610275611747565b34801561055857600080fd5b50610275611756565b34801561056d57600080fd5b50610216611765565b6104e76004803603604081101561058c57600080fd5b50803590602001356119c4565b3480156105a557600080fd5b50610216600480360360208110156105bc57600080fd5b50356001600160a01b0316611d2f565b3480156105d857600080fd5b50610275612738565b3480156105ed57600080fd5b50610275612747565b34801561060257600080fd5b50610275612756565b34801561061757600080fd5b506104e76004803603608081101561062e57600080fd5b506001600160a01b038135169060208101359060408101359060600135612765565b34801561065c57600080fd5b506102756129d3565b34801561067157600080fd5b506102166004803603604081101561068857600080fd5b810190602081018135600160201b8111156106a257600080fd5b8201836020820111156106b457600080fd5b803590602001918460208302840111600160201b831117156106d557600080fd5b9190808060200260200160405190810160405280939291908181526020018383602002808284376000920191909152509295949360208101935035915050600160201b81111561072457600080fd5b82018360208201111561073657600080fd5b803590602001918460208302840111600160201b8311171561075757600080fd5b9190808060200260200160405190810160405280939291908181526020018383602002808284376000920191909152509295506129e2945050505050565b3480156107a157600080fd5b50610216600480360360208110156107b857600080fd5b5035612ad7565b3480156107cb57600080fd5b50610275612b3c565b3480156107e057600080fd5b50610216612b4b565b3480156107f557600080fd5b506102166004803603602081101561080c57600080fd5b5035612bf0565b34801561081f57600080fd5b506102166004803603604081101561083657600080fd5b506001600160a01b038135169060200135612c55565b34801561085857600080fd5b506102166004803603602081101561086f57600080fd5b5035612d07565b34801561088257600080fd5b506102166004803603602081101561089957600080fd5b50356001600160a01b0316612d6c565b3480156108b557600080fd5b50610216612ddb565b3480156108ca57600080fd5b50610275612f02565b3480156108df57600080fd5b50610275612f11565b3480156108f457600080fd5b506102756004803603602081101561090b57600080fd5b50356001600160a01b0316612f20565b34801561092757600080fd5b506102166004803603602081101561093e57600080fd5b5035612f3b565b34801561095157600080fd5b506102166004803603602081101561096857600080fd5b50356001600160a01b0316612fa0565b34801561098457600080fd5b506104e76004803603608081101561099b57600080fd5b506001600160a01b038135811691602081013591604082013591606001351661318e565b3480156109cb57600080fd5b506102166133fe565b6001546001600160a01b03163314610a21576040805162461bcd60e51b81526020600482015260156024820152600080516020614ffe833981519152604482015290519081900360640190fd5b610a356001600160a01b0384168383613459565b505050565b600b546001600160a01b031681565b6001546001600160a01b031681565b6008546001600160a01b031681565b60026000541415610aad576040805162461bcd60e51b815260206004820152601f6024820152600080516020614ef7833981519152604482015290519081900360640190fd5b60026000556001546001600160a01b03163314610aff576040805162461bcd60e51b81526020600482015260156024820152600080516020614ffe833981519152604482015290519081900360640190fd5b60005b8151811015610b2f57610b27828281518110610b1a57fe5b60200260200101516134ab565b600101610b02565b50506001600055565b60026000541415610b7e576040805162461bcd60e51b815260206004820152601f6024820152600080516020614ef7833981519152604482015290519081900360640190fd5b60026000556001546001600160a01b03163314610bd0576040805162461bcd60e51b81526020600482015260156024820152600080516020614ffe833981519152604482015290519081900360640190fd5b610bd9816134ab565b506001600055565b6001546001600160a01b03163314610c2e576040805162461bcd60e51b81526020600482015260156024820152600080516020614ffe833981519152604482015290519081900360640190fd5b600154600160a01b900460ff1615610c775760405162461bcd60e51b815260040180806020018281038252602181526020018061511a6021913960400191505060405180910390fd5b6001805460ff60a01b1916600160a01b179055600280546001600160a01b039e8f166001600160a01b031991821617909155600380549d8f169d82169d909d17909c55600480549b8e169b8d169b909b17909a5560058054998d16998c169990991790985560068054978c16978b169790971790965560078054958b16958a169590951790945560088054938a169389169390931790925560098054918916918816919091179055600b8054918816918716919091179055600a8054918716918616919091179055600c8054918616918516919091179055600d8054918516918416919091179055600e8054919093169116179055565b60026000541415610db4576040805162461bcd60e51b815260206004820152601f6024820152600080516020614ef7833981519152604482015290519081900360640190fd5b6002600090815533908815610ee057600d54604080516309f4173d60e11b81526001600160a01b03858116600483018190526024830152915160009392909216916313e82e7a9160448082019260209290919082900301818787803b158015610e1c57600080fd5b505af1158015610e30573d6000803e3d6000fd5b505050506040513d6020811015610e4657600080fd5b5051600e54604080516309f4173d60e11b81526001600160a01b03878116600483018190526024830152915193945060009391909216916313e82e7a91604480830192602092919082900301818787803b158015610ea357600080fd5b505af1158015610eb7573d6000803e3d6000fd5b505050506040513d6020811015610ecd57600080fd5b50519050610edb82826134c0565b925050505b878015610eed5750600081115b15610f0c57600354610f0c90839081906001600160a01b031684613521565b6000871561103157600754604080516309f4173d60e11b81526001600160a01b03868116600483018190526024830152915160009392909216916313e82e7a9160448082019260209290919082900301818787803b158015610f6d57600080fd5b505af1158015610f81573d6000803e3d6000fd5b505050506040513d6020811015610f9757600080fd5b5051600a54604080516309f4173d60e11b81526001600160a01b03888116600483018190526024830152915193945060009391909216916313e82e7a91604480830192602092919082900301818787803b158015610ff457600080fd5b505af1158015611008573d6000803e3d6000fd5b505050506040513d602081101561101e57600080fd5b5051905061102c82826134c0565b925050505b86801561103e5750600081115b1561105d5760045461105d90849081906001600160a01b031684613521565b851561117257600854604080516309f4173d60e11b81526001600160a01b03868116600483018190526024830152915160009392909216916313e82e7a9160448082019260209290919082900301818787803b1580156110bc57600080fd5b505af11580156110d0573d6000803e3d6000fd5b505050506040513d60208110156110e657600080fd5b5051905080156111705760095460055460408051631e42d69b60e21b81526001600160a01b038881166004830181905260248301529283166044820152606481018590529051919092169163790b5a6c91608480830192600092919082900301818387803b15801561115757600080fd5b505af115801561116b573d6000803e3d6000fd5b505050505b505b841561141f57831561131a57600954604080516309f4173d60e11b81526001600160a01b038681166004830152306024830152915160009392909216916313e82e7a9160448082019260209290919082900301818787803b1580156111d657600080fd5b505af11580156111ea573d6000803e3d6000fd5b505050506040513d602081101561120057600080fd5b5051600b54604080516309f4173d60e11b81526001600160a01b038881166004830152306024830152915193945060009391909216916313e82e7a91604480830192602092919082900301818787803b15801561125c57600080fd5b505af1158015611270573d6000803e3d6000fd5b505050506040513d602081101561128657600080fd5b50519050600061129683836134c0565b60025460408051632e1a7d4d60e01b81526004810184905290519293506001600160a01b0390911691632e1a7d4d9160248082019260009290919082900301818387803b1580156112e657600080fd5b505af11580156112fa573d6000803e3d6000fd5b50611312925050506001600160a01b03871682613730565b50505061141f565b600954604080516309f4173d60e11b81526001600160a01b03868116600483018190526024830152915191909216916313e82e7a9160448083019260209291908290030181600087803b15801561137057600080fd5b505af1158015611384573d6000803e3d6000fd5b505050506040513d602081101561139a57600080fd5b5050600b54604080516309f4173d60e11b81526001600160a01b03868116600483018190526024830152915191909216916313e82e7a9160448083019260209291908290030181600087803b1580156113f257600080fd5b505af1158015611406573d6000803e3d6000fd5b505050506040513d602081101561141c57600080fd5b50505b505060016000555050505050505050565b6005546001600160a01b031681565b600060026000541415611487576040805162461bcd60e51b815260206004820152601f6024820152600080516020614ef7833981519152604482015290519081900360640190fd5b6002600055836114cc576040805162461bcd60e51b815260206004820181905260248201526000805160206150c0833981519152604482015290519081900360640190fd5b600a54600b546040805163098bf59d60e01b815233600482018190526001600160a01b039384166024830152604482018990526064820181905291519193929092169163098bf59d91608480830192600092919082900301818387803b15801561153557600080fd5b505af1158015611549573d6000803e3d6000fd5b5050600b546006546040805163098bf59d60e01b81526001600160a01b03878116600483018190529381166024830152604482018c90526064820193909352905191909216935063098bf59d9250608480830192600092919082900301818387803b1580156115b757600080fd5b505af11580156115cb573d6000803e3d6000fd5b5050600c54600254604080516371d597ad60e01b81526001600160a01b0387811660048301529283166024820152604481018b9052606481018a90523060848201529051600095509190921692506371d597ad9160a48082019260209290919082900301818787803b15801561164057600080fd5b505af1158015611654573d6000803e3d6000fd5b505050506040513d602081101561166a57600080fd5b505160025460408051632e1a7d4d60e01b81526004810184905290519293506001600160a01b0390911691632e1a7d4d9160248082019260009290919082900301818387803b1580156116bc57600080fd5b505af11580156116d0573d6000803e3d6000fd5b506116e8925050506001600160a01b03851682613730565b604080516001600160a01b0384168152602081018890528151600080516020614ed7833981519152929181900390910190a1600160005595945050505050565b600154600160a01b900460ff1681565b6009546001600160a01b031681565b6002546001600160a01b031681565b600c546001600160a01b031681565b600260005414156117ab576040805162461bcd60e51b815260206004820152601f6024820152600080516020614ef7833981519152604482015290519081900360640190fd5b60026000908155600954604080516309f4173d60e11b8152336004820181905260248201819052915191936001600160a01b03909316926313e82e7a926044808401936020939083900390910190829087803b15801561180a57600080fd5b505af115801561181e573d6000803e3d6000fd5b505050506040513d602081101561183457600080fd5b5050600b54604080516309f4173d60e11b81526001600160a01b03848116600483018190526024830152915191909216916313e82e7a9160448083019260209291908290030181600087803b15801561188c57600080fd5b505af11580156118a0573d6000803e3d6000fd5b505050506040513d60208110156118b657600080fd5b5050600754604080516309f4173d60e11b81526001600160a01b03848116600483018190526024830152915191909216916313e82e7a9160448083019260209291908290030181600087803b15801561190e57600080fd5b505af1158015611922573d6000803e3d6000fd5b505050506040513d602081101561193857600080fd5b5050600a54604080516309f4173d60e11b81526001600160a01b03848116600483018190526024830152915191909216916313e82e7a9160448083019260209291908290030181600087803b15801561199057600080fd5b505af11580156119a4573d6000803e3d6000fd5b505050506040513d60208110156119ba57600080fd5b5050600160005550565b600060026000541415611a0c576040805162461bcd60e51b815260206004820152601f6024820152600080516020614ef7833981519152604482015290519081900360640190fd5b600260005534611a63576040805162461bcd60e51b815260206004820152601f60248201527f526577617264526f757465723a20696e76616c6964206d73672e76616c756500604482015290519081900360640190fd5b600260009054906101000a90046001600160a01b03166001600160a01b031663d0e30db0346040518263ffffffff1660e01b81526004016000604051808303818588803b158015611ab357600080fd5b505af1158015611ac7573d6000803e3d6000fd5b5050600254600c546040805163095ea7b360e01b81526001600160a01b039283166004820152346024820152905191909216945063095ea7b39350604480830193506020928290030181600087803b158015611b2257600080fd5b505af1158015611b36573d6000803e3d6000fd5b505050506040513d6020811015611b4c57600080fd5b5050600c54600254604080516317eb2a1560e01b815230600482015233602482018190526001600160a01b0393841660448301523460648301526084820188905260a482018790529151919360009316916317eb2a159160c48082019260209290919082900301818787803b158015611bc457600080fd5b505af1158015611bd8573d6000803e3d6000fd5b505050506040513d6020811015611bee57600080fd5b5051600b5460065460408051631e42d69b60e21b81526001600160a01b03878116600483018190526024830152928316604482015260648101859052905193945091169163790b5a6c9160848082019260009290919082900301818387803b158015611c5957600080fd5b505af1158015611c6d573d6000803e3d6000fd5b5050600a54600b5460408051631e42d69b60e21b81526001600160a01b03888116600483018190526024830152928316604482015260648101879052905191909216935063790b5a6c9250608480830192600092919082900301818387803b158015611cd857600080fd5b505af1158015611cec573d6000803e3d6000fd5b5050604080516001600160a01b0386168152602081018590528151600080516020614f178339815191529450908190039091019150a16001600055949350505050565b60026000541415611d75576040805162461bcd60e51b815260206004820152601f6024820152600080516020614ef7833981519152604482015290519081900360640190fd5b6002600055600d54604080516370a0823160e01b81526001600160a01b038481166004830152915191909216916370a08231916024808301926020929190829003018186803b158015611dc757600080fd5b505afa158015611ddb573d6000803e3d6000fd5b505050506040513d6020811015611df157600080fd5b505115611e2f5760405162461bcd60e51b8152600401808060200182810382526026815260200180614f6d6026913960400191505060405180910390fd5b600e54604080516370a0823160e01b81526001600160a01b038481166004830152915191909216916370a08231916024808301926020929190829003018186803b158015611e7c57600080fd5b505afa158015611e90573d6000803e3d6000fd5b505050506040513d6020811015611ea657600080fd5b505115611ee45760405162461bcd60e51b8152600401808060200182810382526026815260200180614f6d6026913960400191505060405180910390fd5b6001600160a01b038181166000908152600f60205260409020543391168114611f3e5760405162461bcd60e51b81526004018080602001828103825260248152602001806151be6024913960400191505060405180910390fd5b6001600160a01b0382166000908152600f6020526040902080546001600160a01b0319169055611f6d81613815565b611f76826134ab565b60075460035460408051637aeceb1f60e11b81526001600160a01b03868116600483015292831660248201529051600093929092169163f5d9d63e91604480820192602092909190829003018186803b158015611fd257600080fd5b505afa158015611fe6573d6000803e3d6000fd5b505050506040513d6020811015611ffc57600080fd5b50519050801561203a576003546120209084906001600160a01b0316836000614365565b60035461203a90849084906001600160a01b031684613521565b6007546004805460408051637aeceb1f60e11b81526001600160a01b0388811694820194909452918316602483015251600093929092169163f5d9d63e91604480820192602092909190829003018186803b15801561209857600080fd5b505afa1580156120ac573d6000803e3d6000fd5b505050506040513d60208110156120c257600080fd5b505190508015612100576004546120e69085906001600160a01b0316836000614365565b60045461210090859085906001600160a01b031684613521565b60095460055460408051637aeceb1f60e11b81526001600160a01b03888116600483015292831660248201529051600093929092169163f5d9d63e91604480820192602092909190829003018186803b15801561215c57600080fd5b505afa158015612170573d6000803e3d6000fd5b505050506040513d602081101561218657600080fd5b505190508015612293576009546005546040805163098bf59d60e01b81526001600160a01b038981166004830181905293811660248301526044820186905260648201939093529051919092169163098bf59d91608480830192600092919082900301818387803b1580156121fa57600080fd5b505af115801561220e573d6000803e3d6000fd5b505060095460055460408051631e42d69b60e21b81526001600160a01b038b811660048301528a81166024830152928316604482015260648101879052905191909216935063790b5a6c9250608480830192600092919082900301818387803b15801561227a57600080fd5b505af115801561228e573d6000803e3d6000fd5b505050505b6000600460009054906101000a90046001600160a01b03166001600160a01b03166370a08231876040518263ffffffff1660e01b815260040180826001600160a01b0316815260200191505060206040518083038186803b1580156122f757600080fd5b505afa15801561230b573d6000803e3d6000fd5b505050506040513d602081101561232157600080fd5b5051905080156123ba5760048054604080516323b872dd60e01b81526001600160a01b038a811694820194909452888416602482015260448101859052905192909116916323b872dd916064808201926020929091908290030181600087803b15801561238d57600080fd5b505af11580156123a1573d6000803e3d6000fd5b505050506040513d60208110156123b757600080fd5b50505b600b5460065460408051637aeceb1f60e11b81526001600160a01b038a8116600483015292831660248201529051600093929092169163f5d9d63e91604480820192602092909190829003018186803b15801561241657600080fd5b505afa15801561242a573d6000803e3d6000fd5b505050506040513d602081101561244057600080fd5b50519050801561264e57600a54600b546040805163098bf59d60e01b81526001600160a01b038b81166004830181905293811660248301526044820186905260648201939093529051919092169163098bf59d91608480830192600092919082900301818387803b1580156124b457600080fd5b505af11580156124c8573d6000803e3d6000fd5b5050600b546006546040805163098bf59d60e01b81526001600160a01b038d8116600483018190529381166024830152604482018890526064820193909352905191909216935063098bf59d9250608480830192600092919082900301818387803b15801561253657600080fd5b505af115801561254a573d6000803e3d6000fd5b5050600b5460065460408051631e42d69b60e21b81526001600160a01b038d811660048301528c81166024830152928316604482015260648101879052905191909216935063790b5a6c9250608480830192600092919082900301818387803b1580156125b657600080fd5b505af11580156125ca573d6000803e3d6000fd5b5050600a54600b5460408051631e42d69b60e21b81526001600160a01b038c8116600483018190526024830152928316604482015260648101879052905191909216935063790b5a6c9250608480830192600092919082900301818387803b15801561263557600080fd5b505af1158015612649573d6000803e3d6000fd5b505050505b600d5460408051630f713c2360e41b81526001600160a01b038a8116600483015289811660248301529151919092169163f713c23091604480830192600092919082900301818387803b1580156126a457600080fd5b505af11580156126b8573d6000803e3d6000fd5b5050600e5460408051630f713c2360e41b81526001600160a01b038c811660048301528b81166024830152915191909216935063f713c2309250604480830192600092919082900301818387803b15801561271257600080fd5b505af1158015612726573d6000803e3d6000fd5b50506001600055505050505050505050565b600a546001600160a01b031681565b6004546001600160a01b031681565b600d546001600160a01b031681565b6000600260005414156127ad576040805162461bcd60e51b815260206004820152601f6024820152600080516020614ef7833981519152604482015290519081900360640190fd5b6002600055836127f2576040805162461bcd60e51b815260206004820152601d6024820152600080516020615361833981519152604482015290519081900360640190fd5b600c54604080516317eb2a1560e01b81523360048201819052602482018190526001600160a01b038981166044840152606483018990526084830188905260a483018790529251909360009316916317eb2a159160c480830192602092919082900301818787803b15801561286657600080fd5b505af115801561287a573d6000803e3d6000fd5b505050506040513d602081101561289057600080fd5b5051600b5460065460408051631e42d69b60e21b81526001600160a01b03878116600483018190526024830152928316604482015260648101859052905193945091169163790b5a6c9160848082019260009290919082900301818387803b1580156128fb57600080fd5b505af115801561290f573d6000803e3d6000fd5b5050600a54600b5460408051631e42d69b60e21b81526001600160a01b03888116600483018190526024830152928316604482015260648101879052905191909216935063790b5a6c9250608480830192600092919082900301818387803b15801561297a57600080fd5b505af115801561298e573d6000803e3d6000fd5b5050604080516001600160a01b0386168152602081018590528151600080516020614f178339815191529450908190039091019150a160016000559695505050505050565b6007546001600160a01b031681565b60026000541415612a28576040805162461bcd60e51b815260206004820152601f6024820152600080516020614ef7833981519152604482015290519081900360640190fd5b60026000556001546001600160a01b03163314612a7a576040805162461bcd60e51b81526020600482015260156024820152600080516020614ffe833981519152604482015290519081900360640190fd5b6003546001600160a01b031660005b8351811015612acc57612ac433858381518110612aa257fe5b602002602001015184868581518110612ab757fe5b6020026020010151613521565b600101612a89565b505060016000555050565b60026000541415612b1d576040805162461bcd60e51b815260206004820152601f6024820152600080516020614ef7833981519152604482015290519081900360640190fd5b6002600055600454610bd990339081906001600160a01b031684613521565b6006546001600160a01b031681565b60026000541415612b91576040805162461bcd60e51b815260206004820152601f6024820152600080516020614ef7833981519152604482015290519081900360640190fd5b60026000908155600754604080516309f4173d60e11b8152336004820181905260248201819052915191936001600160a01b03909316926313e82e7a926044808401936020939083900390910190829087803b15801561190e57600080fd5b60026000541415612c36576040805162461bcd60e51b815260206004820152601f6024820152600080516020614ef7833981519152604482015290519081900360640190fd5b6002600055600454610bd99033906001600160a01b0316836001614365565b60026000541415612c9b576040805162461bcd60e51b815260206004820152601f6024820152600080516020614ef7833981519152604482015290519081900360640190fd5b60026000556001546001600160a01b03163314612ced576040805162461bcd60e51b81526020600482015260156024820152600080516020614ffe833981519152604482015290519081900360640190fd5b600354610b2f90339084906001600160a01b031684613521565b60026000541415612d4d576040805162461bcd60e51b815260206004820152601f6024820152600080516020614ef7833981519152604482015290519081900360640190fd5b6002600055600354610bd99033906001600160a01b0316836001614365565b6001546001600160a01b03163314612db9576040805162461bcd60e51b81526020600482015260156024820152600080516020614ffe833981519152604482015290519081900360640190fd5b600180546001600160a01b0319166001600160a01b0392909216919091179055565b60026000541415612e21576040805162461bcd60e51b815260206004820152601f6024820152600080516020614ef7833981519152604482015290519081900360640190fd5b60026000908155600954604080516309f4173d60e11b8152336004820181905260248201819052915191936001600160a01b03909316926313e82e7a926044808401936020939083900390910190829087803b158015612e8057600080fd5b505af1158015612e94573d6000803e3d6000fd5b505050506040513d6020811015612eaa57600080fd5b5050600b54604080516309f4173d60e11b81526001600160a01b03848116600483018190526024830152915191909216916313e82e7a9160448083019260209291908290030181600087803b15801561199057600080fd5b6003546001600160a01b031681565b600e546001600160a01b031681565b600f602052600090815260409020546001600160a01b031681565b60026000541415612f81576040805162461bcd60e51b815260206004820152601f6024820152600080516020614ef7833981519152604482015290519081900360640190fd5b6002600055600354610bd990339081906001600160a01b031684613521565b60026000541415612fe6576040805162461bcd60e51b815260206004820152601f6024820152600080516020614ef7833981519152604482015290519081900360640190fd5b6002600055600d54604080516370a0823160e01b815233600482015290516001600160a01b03909216916370a0823191602480820192602092909190829003018186803b15801561303657600080fd5b505afa15801561304a573d6000803e3d6000fd5b505050506040513d602081101561306057600080fd5b50511561309e5760405162461bcd60e51b8152600401808060200182810382526026815260200180614f6d6026913960400191505060405180910390fd5b600e54604080516370a0823160e01b815233600482015290516001600160a01b03909216916370a0823191602480820192602092909190829003018186803b1580156130e957600080fd5b505afa1580156130fd573d6000803e3d6000fd5b505050506040513d602081101561311357600080fd5b5051156131515760405162461bcd60e51b8152600401808060200182810382526026815260200180614f6d6026913960400191505060405180910390fd5b61315a81613815565b336000908152600f6020526040812080546001600160a01b0319166001600160a01b03939093169290921790915560019055565b6000600260005414156131d6576040805162461bcd60e51b815260206004820152601f6024820152600080516020614ef7833981519152604482015290519081900360640190fd5b60026000558361321b576040805162461bcd60e51b815260206004820181905260248201526000805160206150c0833981519152604482015290519081900360640190fd5b600a54600b546040805163098bf59d60e01b815233600482018190526001600160a01b039384166024830152604482018990526064820181905291519193929092169163098bf59d91608480830192600092919082900301818387803b15801561328457600080fd5b505af1158015613298573d6000803e3d6000fd5b5050600b546006546040805163098bf59d60e01b81526001600160a01b03878116600483018190529381166024830152604482018c90526064820193909352905191909216935063098bf59d9250608480830192600092919082900301818387803b15801561330657600080fd5b505af115801561331a573d6000803e3d6000fd5b5050600c54604080516371d597ad60e01b81526001600160a01b0386811660048301528b81166024830152604482018b9052606482018a905288811660848301529151600095509190921692506371d597ad9160a48082019260209290919082900301818787803b15801561338e57600080fd5b505af11580156133a2573d6000803e3d6000fd5b505050506040513d60208110156133b857600080fd5b5051604080516001600160a01b0385168152602081018990528151929350600080516020614ed7833981519152929081900390910190a160016000559695505050505050565b60026000541415613444576040805162461bcd60e51b815260206004820152601f6024820152600080516020614ef7833981519152604482015290519081900360640190fd5b6002600055613452336134ab565b6001600055565b604080516001600160a01b038416602482015260448082018490528251808303909101815260649091019091526020810180516001600160e01b031663a9059cbb60e01b179052610a359084906148a7565b6134b481614958565b6134bd81614b10565b50565b600082820183811015613518576040805162461bcd60e51b815260206004820152601b60248201527a536166654d6174683a206164646974696f6e206f766572666c6f7760281b604482015290519081900360640190fd5b90505b92915050565b60008111613564576040805162461bcd60e51b815260206004820152601d6024820152600080516020615361833981519152604482015290519081900360640190fd5b60075460408051631e42d69b60e21b81526001600160a01b03878116600483015286811660248301528581166044830152606482018590529151919092169163790b5a6c91608480830192600092919082900301818387803b1580156135c957600080fd5b505af11580156135dd573d6000803e3d6000fd5b505060085460075460408051631e42d69b60e21b81526001600160a01b03898116600483018190526024830152928316604482015260648101879052905191909216935063790b5a6c9250608480830192600092919082900301818387803b15801561364857600080fd5b505af115801561365c573d6000803e3d6000fd5b505060095460085460408051631e42d69b60e21b81526001600160a01b03898116600483018190526024830152928316604482015260648101879052905191909216935063790b5a6c9250608480830192600092919082900301818387803b1580156136c757600080fd5b505af11580156136db573d6000803e3d6000fd5b5050604080516001600160a01b0380881682528616602082015280820185905290517f9e175b03d981652f501ae2a10eeb488376efba9d3b36df8517b58c70ef04e4129350908190036060019150a150505050565b80471015613785576040805162461bcd60e51b815260206004820152601d60248201527f416464726573733a20696e73756666696369656e742062616c616e6365000000604482015290519081900360640190fd5b6040516000906001600160a01b0384169083908381818185875af1925050503d80600081146137d0576040519150601f19603f3d011682016040523d82523d6000602084013e6137d5565b606091505b5050905080610a355760405162461bcd60e51b815260040180806020018281038252603a8152602001806150e0603a913960400191505060405180910390fd5b6007546040805163a318021760e01b81526001600160a01b0384811660048301529151919092169163a3180217916024808301926020929190829003018186803b15801561386257600080fd5b505afa158015613876573d6000803e3d6000fd5b505050506040513d602081101561388c57600080fd5b5051156138ca5760405162461bcd60e51b815260040180806020018281038252603981526020018061501e6039913960400191505060405180910390fd5b60075460408051633792def360e01b81526001600160a01b03848116600483015291519190921691633792def3916024808301926020929190829003018186803b15801561391757600080fd5b505afa15801561392b573d6000803e3d6000fd5b505050506040513d602081101561394157600080fd5b50511561397f5760405162461bcd60e51b8152600401808060200182810382526036815260200180614f376036913960400191505060405180910390fd5b6008546040805163a318021760e01b81526001600160a01b0384811660048301529151919092169163a3180217916024808301926020929190829003018186803b1580156139cc57600080fd5b505afa1580156139e0573d6000803e3d6000fd5b505050506040513d60208110156139f657600080fd5b505115613a345760405162461bcd60e51b81526004018080602001828103825260388152602001806150886038913960400191505060405180910390fd5b60085460408051633792def360e01b81526001600160a01b03848116600483015291519190921691633792def3916024808301926020929190829003018186803b158015613a8157600080fd5b505afa158015613a95573d6000803e3d6000fd5b505050506040513d6020811015613aab57600080fd5b505115613ae95760405162461bcd60e51b8152600401808060200182810382526035815260200180614fc96035913960400191505060405180910390fd5b6009546040805163a318021760e01b81526001600160a01b0384811660048301529151919092169163a3180217916024808301926020929190829003018186803b158015613b3657600080fd5b505afa158015613b4a573d6000803e3d6000fd5b505050506040513d6020811015613b6057600080fd5b505115613b9e5760405162461bcd60e51b8152600401808060200182810382526036815260200180614f936036913960400191505060405180910390fd5b60095460408051633792def360e01b81526001600160a01b03848116600483015291519190921691633792def3916024808301926020929190829003018186803b158015613beb57600080fd5b505afa158015613bff573d6000803e3d6000fd5b505050506040513d6020811015613c1557600080fd5b505115613c535760405162461bcd60e51b81526004018080602001828103825260338152602001806153046033913960400191505060405180910390fd5b600d5460408051631ccdc0d760e21b81526001600160a01b03848116600483015291519190921691637337035c916024808301926020929190829003018186803b158015613ca057600080fd5b505afa158015613cb4573d6000803e3d6000fd5b505050506040513d6020811015613cca57600080fd5b505115613d085760405162461bcd60e51b815260040180806020018281038252603d81526020018061523e603d913960400191505060405180910390fd5b600d5460408051635b8de71560e11b81526001600160a01b0384811660048301529151919092169163b71bce2a916024808301926020929190829003018186803b158015613d5557600080fd5b505afa158015613d69573d6000803e3d6000fd5b505050506040513d6020811015613d7f57600080fd5b505115613dbd5760405162461bcd60e51b815260040180806020018281038252603a815260200180615184603a913960400191505060405180910390fd5b600a546040805163a318021760e01b81526001600160a01b0384811660048301529151919092169163a3180217916024808301926020929190829003018186803b158015613e0a57600080fd5b505afa158015613e1e573d6000803e3d6000fd5b505050506040513d6020811015613e3457600080fd5b505115613e725760405162461bcd60e51b81526004018080602001828103825260378152602001806152076037913960400191505060405180910390fd5b600a5460408051633792def360e01b81526001600160a01b03848116600483015291519190921691633792def3916024808301926020929190829003018186803b158015613ebf57600080fd5b505afa158015613ed3573d6000803e3d6000fd5b505050506040513d6020811015613ee957600080fd5b505115613f275760405162461bcd60e51b81526004018080602001828103825260348152602001806152d06034913960400191505060405180910390fd5b600b546040805163a318021760e01b81526001600160a01b0384811660048301529151919092169163a3180217916024808301926020929190829003018186803b158015613f7457600080fd5b505afa158015613f88573d6000803e3d6000fd5b505050506040513d6020811015613f9e57600080fd5b505115613fdc5760405162461bcd60e51b815260040180806020018281038252603481526020018061529c6034913960400191505060405180910390fd5b600b5460408051633792def360e01b81526001600160a01b03848116600483015291519190921691633792def3916024808301926020929190829003018186803b15801561402957600080fd5b505afa15801561403d573d6000803e3d6000fd5b505050506040513d602081101561405357600080fd5b5051156140915760405162461bcd60e51b81526004018080602001828103825260318152602001806150576031913960400191505060405180910390fd5b600e5460408051631ccdc0d760e21b81526001600160a01b03848116600483015291519190921691637337035c916024808301926020929190829003018186803b1580156140de57600080fd5b505afa1580156140f2573d6000803e3d6000fd5b505050506040513d602081101561410857600080fd5b5051156141465760405162461bcd60e51b815260040180806020018281038252603d81526020018061523e603d913960400191505060405180910390fd5b600e5460408051635b8de71560e11b81526001600160a01b0384811660048301529151919092169163b71bce2a916024808301926020929190829003018186803b15801561419357600080fd5b505afa1580156141a7573d6000803e3d6000fd5b505050506040513d60208110156141bd57600080fd5b5051156141fb5760405162461bcd60e51b815260040180806020018281038252603a815260200180615184603a913960400191505060405180910390fd5b600d54604080516370a0823160e01b81526001600160a01b038481166004830152915191909216916370a08231916024808301926020929190829003018186803b15801561424857600080fd5b505afa15801561425c573d6000803e3d6000fd5b505050506040513d602081101561427257600080fd5b5051156142b05760405162461bcd60e51b81526004018080602001828103825260258152602001806151e26025913960400191505060405180910390fd5b600e54604080516370a0823160e01b81526001600160a01b038481166004830152915191909216916370a08231916024808301926020929190829003018186803b1580156142fd57600080fd5b505afa158015614311573d6000803e3d6000fd5b505050506040513d602081101561432757600080fd5b5051156134bd5760405162461bcd60e51b81526004018080602001828103825260238152602001806151616023913960400191505060405180910390fd5b600082116143a8576040805162461bcd60e51b815260206004820152601d6024820152600080516020615361833981519152604482015290519081900360640190fd5b600754604080516310c1c10360e01b81526001600160a01b038781166004830152915160009392909216916310c1c10391602480820192602092909190829003018186803b1580156143f957600080fd5b505afa15801561440d573d6000803e3d6000fd5b505050506040513d602081101561442357600080fd5b50516009546008546040805163098bf59d60e01b81526001600160a01b038a8116600483018190529381166024830152604482018990526064820193909352905193945091169163098bf59d9160848082019260009290919082900301818387803b15801561449157600080fd5b505af11580156144a5573d6000803e3d6000fd5b50506008546007546040805163098bf59d60e01b81526001600160a01b038b8116600483018190529381166024830152604482018a90526064820193909352905191909216935063098bf59d9250608480830192600092919082900301818387803b15801561451357600080fd5b505af1158015614527573d6000803e3d6000fd5b50506007546040805163098bf59d60e01b81526001600160a01b038a8116600483018190528a82166024840152604483018a90526064830152915191909216935063098bf59d9250608480830192600092919082900301818387803b15801561458f57600080fd5b505af11580156145a3573d6000803e3d6000fd5b50505050811561485657600854604080516309f4173d60e11b81526001600160a01b03888116600483018190526024830152915160009392909216916313e82e7a9160448082019260209290919082900301818787803b15801561460657600080fd5b505af115801561461a573d6000803e3d6000fd5b505050506040513d602081101561463057600080fd5b5051905080156146ba5760095460055460408051631e42d69b60e21b81526001600160a01b038a81166004830181905260248301529283166044820152606481018590529051919092169163790b5a6c91608480830192600092919082900301818387803b1580156146a157600080fd5b505af11580156146b5573d6000803e3d6000fd5b505050505b60095460055460408051637aeceb1f60e11b81526001600160a01b038a8116600483015292831660248201529051600093929092169163f5d9d63e91604480820192602092909190829003018186803b15801561471657600080fd5b505afa15801561472a573d6000803e3d6000fd5b505050506040513d602081101561474057600080fd5b5051905080156148535760006147608461475a8489614bbb565b90614c14565b6009546005546040805163098bf59d60e01b81526001600160a01b038d8116600483018190529381166024830152604482018690526064820193909352905193945091169163098bf59d9160848082019260009290919082900301818387803b1580156147cc57600080fd5b505af11580156147e0573d6000803e3d6000fd5b505060055460408051632770a7eb60e21b81526001600160a01b038d81166004830152602482018790529151919092169350639dc29fac9250604480830192600092919082900301818387803b15801561483957600080fd5b505af115801561484d573d6000803e3d6000fd5b50505050505b50505b604080516001600160a01b0380881682528616602082015280820185905290517f859b8ca30e66228633811e379ab31367e75f74ecfe0befb6e454ea620226b46f9181900360600190a15050505050565b60606148fc826040518060400160405280602081526020017f5361666545524332303a206c6f772d6c6576656c2063616c6c206661696c6564815250856001600160a01b0316614c539092919063ffffffff16565b805190915015610a355780806020019051602081101561491b57600080fd5b5051610a355760405162461bcd60e51b815260040180806020018281038252602a815260200180615337602a913960400191505060405180910390fd5b600754604080516309f4173d60e11b81526001600160a01b03848116600483018190526024830152915160009392909216916313e82e7a9160448082019260209290919082900301818787803b1580156149b157600080fd5b505af11580156149c5573d6000803e3d6000fd5b505050506040513d60208110156149db57600080fd5b5051905080156149ff576004546149ff90839081906001600160a01b031684613521565b600854604080516309f4173d60e11b81526001600160a01b03858116600483018190526024830152915160009392909216916313e82e7a9160448082019260209290919082900301818787803b158015614a5857600080fd5b505af1158015614a6c573d6000803e3d6000fd5b505050506040513d6020811015614a8257600080fd5b505190508015610a355760095460055460408051631e42d69b60e21b81526001600160a01b038781166004830181905260248301529283166044820152606481018590529051919092169163790b5a6c91608480830192600092919082900301818387803b158015614af357600080fd5b505af1158015614b07573d6000803e3d6000fd5b50505050505050565b600a54604080516309f4173d60e11b81526001600160a01b03848116600483018190526024830152915160009392909216916313e82e7a9160448082019260209290919082900301818787803b158015614b6957600080fd5b505af1158015614b7d573d6000803e3d6000fd5b505050506040513d6020811015614b9357600080fd5b505190508015614bb757600454614bb790839081906001600160a01b031684613521565b5050565b600082614bca5750600061351b565b82820282848281614bd757fe5b04146135185760405162461bcd60e51b815260040180806020018281038252602181526020018061527b6021913960400191505060405180910390fd5b600061351883836040518060400160405280601a815260200179536166654d6174683a206469766973696f6e206279207a65726f60301b815250614c6c565b6060614c628484600085614d0e565b90505b9392505050565b60008183614cf85760405162461bcd60e51b81526004018080602001828103825283818151815260200191508051906020019080838360005b83811015614cbd578181015183820152602001614ca5565b50505050905090810190601f168015614cea5780820380516001836020036101000a031916815260200191505b509250505060405180910390fd5b506000838581614d0457fe5b0495945050505050565b606082471015614d4f5760405162461bcd60e51b815260040180806020018281038252602681526020018061513b6026913960400191505060405180910390fd5b614d5885614e6a565b614da9576040805162461bcd60e51b815260206004820152601d60248201527f416464726573733a2063616c6c20746f206e6f6e2d636f6e7472616374000000604482015290519081900360640190fd5b60006060866001600160a01b031685876040518082805190602001908083835b60208310614de85780518252601f199092019160209182019101614dc9565b6001836020036101000a03801982511681845116808217855250505050505090500191505060006040518083038185875af1925050503d8060008114614e4a576040519150601f19603f3d011682016040523d82523d6000602084013e614e4f565b606091505b5091509150614e5f828286614e70565b979650505050505050565b3b151590565b60608315614e7f575081614c65565b825115614e8f5782518084602001fd5b60405162461bcd60e51b8152602060048201818152845160248401528451859391928392604401919085019080838360008315614cbd578181015183820152602001614ca556fe9633d7f9e1330ff533a9f9dc4a930e3c07ad13feb29200edd7c8b1bd830de7265265656e7472616e637947756172643a207265656e7472616e742063616c6c00ddc721efbc15d28e86153c34b12cf88666cb1b382c292807d4a6d27d872eba73526577617264526f757465723a207374616b6564556e697479547261636b65722e63756d756c617469766552657761726473203e2030526577617264526f757465723a2073656e646572206861732076657374656420746f6b656e73526577617264526f757465723a20666565556e697479547261636b65722e617665726167655374616b6564416d6f756e7473203e2030526577617264526f757465723a20626f6e7573556e697479547261636b65722e63756d756c617469766552657761726473203e2030476f7665726e61626c653a20666f7262696464656e0000000000000000000000526577617264526f757465723a207374616b6564556e697479547261636b65722e617665726167655374616b6564416d6f756e7473203e2030526577617264526f757465723a20666565556c70547261636b65722e63756d756c617469766552657761726473203e2030526577617264526f757465723a20626f6e7573556e697479547261636b65722e617665726167655374616b6564416d6f756e7473203e2030526577617264526f757465723a20696e76616c6964205f756c70416d6f756e74416464726573733a20756e61626c6520746f2073656e642076616c75652c20726563697069656e74206d61792068617665207265766572746564526577617264526f757465723a20616c726561647920696e697469616c697a6564416464726573733a20696e73756666696369656e742062616c616e636520666f722063616c6c526577617264526f757465723a20756c705665737465722e62616c616e6365203e2030526577617264526f757465723a20756e6974795665737465722e7472616e7366657272656443756d756c617469766552657761726473203e2030526577617264526f757465723a207472616e73666572206e6f74207369676e616c6c6564526577617264526f757465723a20756e6974795665737465722e62616c616e6365203e2030526577617264526f757465723a207374616b6564556c70547261636b65722e617665726167655374616b6564416d6f756e7473203e2030526577617264526f757465723a20756e6974795665737465722e7472616e73666572726564417665726167655374616b6564416d6f756e7473203e2030536166654d6174683a206d756c7469706c69636174696f6e206f766572666c6f77526577617264526f757465723a20666565556c70547261636b65722e617665726167655374616b6564416d6f756e7473203e2030526577617264526f757465723a207374616b6564556c70547261636b65722e63756d756c617469766552657761726473203e2030526577617264526f757465723a20666565556e697479547261636b65722e63756d756c617469766552657761726473203e20305361666545524332303a204552433230206f7065726174696f6e20646964206e6f742073756363656564526577617264526f757465723a20696e76616c6964205f616d6f756e74000000a264697066735822122032a2719664d21199d708310f52e422a37c3fc04e10e8efc612be52998fc17b2b64736f6c634300060c0033",
  "linkReferences": {},
  "deployedLinkReferences": {}
}