{
  "_format": "hh-sol-artifact-1",
  "contractName": "UnityMigrator",
  "sourceName": "contracts/unity/UnityMigrator.sol",
  "abi": [
    {
      "inputs": [
        {
          "internalType": "uint256",
          "name": "_minAuthorizations",
          "type": "uint256"
        }
      ],
      "stateMutability": "nonpayable",
      "type": "constructor"
    },
    {
      "anonymous": false,
      "inputs": [
        {
          "indexed": false,
          "internalType": "bytes32",
          "name": "action",
          "type": "bytes32"
        },
        {
          "indexed": false,
          "internalType": "uint256",
          "name": "nonce",
          "type": "uint256"
        }
      ],
      "name": "ClearAction",
      "type": "event"
    },
    {
      "anonymous": false,
      "inputs": [
        {
          "indexed": false,
          "internalType": "bytes32",
          "name": "action",
          "type": "bytes32"
        },
        {
          "indexed": false,
          "internalType": "uint256",
          "name": "nonce",
          "type": "uint256"
        }
      ],
      "name": "SignAction",
      "type": "event"
    },
    {
      "anonymous": false,
      "inputs": [
        {
          "indexed": false,
          "internalType": "address",
          "name": "token",
          "type": "address"
        },
        {
          "indexed": false,
          "internalType": "address",
          "name": "spender",
          "type": "address"
        },
        {
          "indexed": false,
          "internalType": "uint256",
          "name": "amount",
          "type": "uint256"
        },
        {
          "indexed": false,
          "internalType": "bytes32",
          "name": "action",
          "type": "bytes32"
        },
        {
          "indexed": false,
          "internalType": "uint256",
          "name": "nonce",
          "type": "uint256"
        }
      ],
      "name": "SignalApprove",
      "type": "event"
    },
    {
      "anonymous": false,
      "inputs": [
        {
          "indexed": false,
          "internalType": "bytes32",
          "name": "action",
          "type": "bytes32"
        },
        {
          "indexed": false,
          "internalType": "uint256",
          "name": "nonce",
          "type": "uint256"
        }
      ],
      "name": "SignalPendingAction",
      "type": "event"
    },
    {
      "inputs": [],
      "name": "actionsNonce",
      "outputs": [
        {
          "internalType": "uint256",
          "name": "",
          "type": "uint256"
        }
      ],
      "stateMutability": "view",
      "type": "function"
    },
    {
      "inputs": [],
      "name": "admin",
      "outputs": [
        {
          "internalType": "address",
          "name": "",
          "type": "address"
        }
      ],
      "stateMutability": "view",
      "type": "function"
    },
    {
      "inputs": [],
      "name": "ammRouter",
      "outputs": [
        {
          "internalType": "address",
          "name": "",
          "type": "address"
        }
      ],
      "stateMutability": "view",
      "type": "function"
    },
    {
      "inputs": [
        {
          "internalType": "address",
          "name": "_token",
          "type": "address"
        },
        {
          "internalType": "address",
          "name": "_spender",
          "type": "address"
        },
        {
          "internalType": "uint256",
          "name": "_amount",
          "type": "uint256"
        },
        {
          "internalType": "uint256",
          "name": "_nonce",
          "type": "uint256"
        }
      ],
      "name": "approve",
      "outputs": [],
      "stateMutability": "nonpayable",
      "type": "function"
    },
    {
      "inputs": [
        {
          "internalType": "address",
          "name": "",
          "type": "address"
        }
      ],
      "name": "caps",
      "outputs": [
        {
          "internalType": "uint256",
          "name": "",
          "type": "uint256"
        }
      ],
      "stateMutability": "view",
      "type": "function"
    },
    {
      "inputs": [],
      "name": "endMigration",
      "outputs": [],
      "stateMutability": "nonpayable",
      "type": "function"
    },
    {
      "inputs": [
        {
          "internalType": "address",
          "name": "_token",
          "type": "address"
        }
      ],
      "name": "getIouToken",
      "outputs": [
        {
          "internalType": "address",
          "name": "",
          "type": "address"
        }
      ],
      "stateMutability": "view",
      "type": "function"
    },
    {
      "inputs": [
        {
          "internalType": "address[]",
          "name": "_tokens",
          "type": "address[]"
        }
      ],
      "name": "getTokenAmounts",
      "outputs": [
        {
          "internalType": "uint256[]",
          "name": "",
          "type": "uint256[]"
        }
      ],
      "stateMutability": "view",
      "type": "function"
    },
    {
      "inputs": [
        {
          "internalType": "address",
          "name": "_token",
          "type": "address"
        }
      ],
      "name": "getTokenPrice",
      "outputs": [
        {
          "internalType": "uint256",
          "name": "",
          "type": "uint256"
        }
      ],
      "stateMutability": "view",
      "type": "function"
    },
    {
      "inputs": [],
      "name": "hasMaxMigrationLimit",
      "outputs": [
        {
          "internalType": "bool",
          "name": "",
          "type": "bool"
        }
      ],
      "stateMutability": "view",
      "type": "function"
    },
    {
      "inputs": [
        {
          "internalType": "address",
          "name": "_ammRouter",
          "type": "address"
        },
        {
          "internalType": "uint256",
          "name": "_unityPrice",
          "type": "uint256"
        },
        {
          "internalType": "address[]",
          "name": "_signers",
          "type": "address[]"
        },
        {
          "internalType": "address[]",
          "name": "_whitelistedTokens",
          "type": "address[]"
        },
        {
          "internalType": "address[]",
          "name": "_iouTokens",
          "type": "address[]"
        },
        {
          "internalType": "uint256[]",
          "name": "_prices",
          "type": "uint256[]"
        },
        {
          "internalType": "uint256[]",
          "name": "_caps",
          "type": "uint256[]"
        },
        {
          "internalType": "address[]",
          "name": "_lpTokens",
          "type": "address[]"
        },
        {
          "internalType": "address[]",
          "name": "_lpTokenAs",
          "type": "address[]"
        },
        {
          "internalType": "address[]",
          "name": "_lpTokenBs",
          "type": "address[]"
        }
      ],
      "name": "initialize",
      "outputs": [],
      "stateMutability": "nonpayable",
      "type": "function"
    },
    {
      "inputs": [
        {
          "internalType": "address",
          "name": "",
          "type": "address"
        }
      ],
      "name": "iouTokens",
      "outputs": [
        {
          "internalType": "address",
          "name": "",
          "type": "address"
        }
      ],
      "stateMutability": "view",
      "type": "function"
    },
    {
      "inputs": [],
      "name": "isInitialized",
      "outputs": [
        {
          "internalType": "bool",
          "name": "",
          "type": "bool"
        }
      ],
      "stateMutability": "view",
      "type": "function"
    },
    {
      "inputs": [],
      "name": "isMigrationActive",
      "outputs": [
        {
          "internalType": "bool",
          "name": "",
          "type": "bool"
        }
      ],
      "stateMutability": "view",
      "type": "function"
    },
    {
      "inputs": [
        {
          "internalType": "address",
          "name": "",
          "type": "address"
        }
      ],
      "name": "isSigner",
      "outputs": [
        {
          "internalType": "bool",
          "name": "",
          "type": "bool"
        }
      ],
      "stateMutability": "view",
      "type": "function"
    },
    {
      "inputs": [
        {
          "internalType": "address",
          "name": "",
          "type": "address"
        }
      ],
      "name": "lpTokenAs",
      "outputs": [
        {
          "internalType": "address",
          "name": "",
          "type": "address"
        }
      ],
      "stateMutability": "view",
      "type": "function"
    },
    {
      "inputs": [
        {
          "internalType": "address",
          "name": "",
          "type": "address"
        }
      ],
      "name": "lpTokenBs",
      "outputs": [
        {
          "internalType": "address",
          "name": "",
          "type": "address"
        }
      ],
      "stateMutability": "view",
      "type": "function"
    },
    {
      "inputs": [
        {
          "internalType": "address",
          "name": "",
          "type": "address"
        }
      ],
      "name": "lpTokens",
      "outputs": [
        {
          "internalType": "bool",
          "name": "",
          "type": "bool"
        }
      ],
      "stateMutability": "view",
      "type": "function"
    },
    {
      "inputs": [
        {
          "internalType": "address",
          "name": "",
          "type": "address"
        },
        {
          "internalType": "address",
          "name": "",
          "type": "address"
        }
      ],
      "name": "maxMigrationAmounts",
      "outputs": [
        {
          "internalType": "uint256",
          "name": "",
          "type": "uint256"
        }
      ],
      "stateMutability": "view",
      "type": "function"
    },
    {
      "inputs": [
        {
          "internalType": "address",
          "name": "_token",
          "type": "address"
        },
        {
          "internalType": "uint256",
          "name": "_tokenAmount",
          "type": "uint256"
        }
      ],
      "name": "migrate",
      "outputs": [],
      "stateMutability": "nonpayable",
      "type": "function"
    },
    {
      "inputs": [
        {
          "internalType": "address",
          "name": "",
          "type": "address"
        },
        {
          "internalType": "address",
          "name": "",
          "type": "address"
        }
      ],
      "name": "migratedAmounts",
      "outputs": [
        {
          "internalType": "uint256",
          "name": "",
          "type": "uint256"
        }
      ],
      "stateMutability": "view",
      "type": "function"
    },
    {
      "inputs": [],
      "name": "minAuthorizations",
      "outputs": [
        {
          "internalType": "uint256",
          "name": "",
          "type": "uint256"
        }
      ],
      "stateMutability": "view",
      "type": "function"
    },
    {
      "inputs": [
        {
          "internalType": "bytes32",
          "name": "",
          "type": "bytes32"
        }
      ],
      "name": "pendingActions",
      "outputs": [
        {
          "internalType": "bool",
          "name": "",
          "type": "bool"
        }
      ],
      "stateMutability": "view",
      "type": "function"
    },
    {
      "inputs": [
        {
          "internalType": "address",
          "name": "",
          "type": "address"
        }
      ],
      "name": "prices",
      "outputs": [
        {
          "internalType": "uint256",
          "name": "",
          "type": "uint256"
        }
      ],
      "stateMutability": "view",
      "type": "function"
    },
    {
      "inputs": [
        {
          "internalType": "bool",
          "name": "_hasMaxMigrationLimit",
          "type": "bool"
        }
      ],
      "name": "setHasMaxMigrationLimit",
      "outputs": [],
      "stateMutability": "nonpayable",
      "type": "function"
    },
    {
      "inputs": [
        {
          "internalType": "address",
          "name": "_account",
          "type": "address"
        },
        {
          "internalType": "address",
          "name": "_token",
          "type": "address"
        },
        {
          "internalType": "uint256",
          "name": "_maxMigrationAmount",
          "type": "uint256"
        }
      ],
      "name": "setMaxMigrationAmount",
      "outputs": [],
      "stateMutability": "nonpayable",
      "type": "function"
    },
    {
      "inputs": [
        {
          "internalType": "address",
          "name": "_token",
          "type": "address"
        },
        {
          "internalType": "address",
          "name": "_spender",
          "type": "address"
        },
        {
          "internalType": "uint256",
          "name": "_amount",
          "type": "uint256"
        },
        {
          "internalType": "uint256",
          "name": "_nonce",
          "type": "uint256"
        }
      ],
      "name": "signApprove",
      "outputs": [],
      "stateMutability": "nonpayable",
      "type": "function"
    },
    {
      "inputs": [
        {
          "internalType": "address",
          "name": "_token",
          "type": "address"
        },
        {
          "internalType": "address",
          "name": "_spender",
          "type": "address"
        },
        {
          "internalType": "uint256",
          "name": "_amount",
          "type": "uint256"
        }
      ],
      "name": "signalApprove",
      "outputs": [],
      "stateMutability": "nonpayable",
      "type": "function"
    },
    {
      "inputs": [
        {
          "internalType": "address",
          "name": "",
          "type": "address"
        },
        {
          "internalType": "bytes32",
          "name": "",
          "type": "bytes32"
        }
      ],
      "name": "signedActions",
      "outputs": [
        {
          "internalType": "bool",
          "name": "",
          "type": "bool"
        }
      ],
      "stateMutability": "view",
      "type": "function"
    },
    {
      "inputs": [
        {
          "internalType": "uint256",
          "name": "",
          "type": "uint256"
        }
      ],
      "name": "signers",
      "outputs": [
        {
          "internalType": "address",
          "name": "",
          "type": "address"
        }
      ],
      "stateMutability": "view",
      "type": "function"
    },
    {
      "inputs": [
        {
          "internalType": "address",
          "name": "",
          "type": "address"
        }
      ],
      "name": "tokenAmounts",
      "outputs": [
        {
          "internalType": "uint256",
          "name": "",
          "type": "uint256"
        }
      ],
      "stateMutability": "view",
      "type": "function"
    },
    {
      "inputs": [],
      "name": "unityPrice",
      "outputs": [
        {
          "internalType": "uint256",
          "name": "",
          "type": "uint256"
        }
      ],
      "stateMutability": "view",
      "type": "function"
    },
    {
      "inputs": [
        {
          "internalType": "address",
          "name": "",
          "type": "address"
        }
      ],
      "name": "whitelistedTokens",
      "outputs": [
        {
          "internalType": "bool",
          "name": "",
          "type": "bool"
        }
      ],
      "stateMutability": "view",
      "type": "function"
    }
  ],
  "bytecode": "0x60806040526001805462ff00001961ff00199091166101001716905534801561002757600080fd5b506040516126ab3803806126ab8339818101604052602081101561004a57600080fd5b50516001600055600680546001600160a01b03191633179055600255612636806100756000396000f3fe608060405234801561001057600080fd5b506004361061018b5760003560e01c80630122f868146101905780630e913a6c146101b15780632079fb9a146101cd578063287800c914610206578063392e53cd1461022057806341410d4a1461022857806343b45f351461024e5780634dc5ecb3146102745780635183a7ca146102b057806364d4b173146102b857806366d97b21146106fd5780636c525d04146107235780637b0365a71461072b5780637df73e271461081c5780637efdec321461084257806387c6d4f91461086857806390b3c4e714610894578063918355271461089c578063a0e2e5f6146108d2578063a4c04bb7146108f8578063a758f6dd14610900578063ad68ebf71461092e578063b17b658d1461095a578063ceb6250e14610980578063cfed246b146109ae578063d02641a0146109d4578063daf9c210146109fa578063dce6e18d14610a20578063e30569e514610a56578063e699e04814610a73578063ea3bf15514610a99578063f52dc4f714610aa1578063f851a44014610add575b600080fd5b6101af600480360360208110156101a657600080fd5b50351515610ae5565b005b6101b9610b4e565b604080519115158252519081900360200190f35b6101ea600480360360208110156101e357600080fd5b5035610b5c565b604080516001600160a01b039092168252519081900360200190f35b61020e610b83565b60408051918252519081900360200190f35b6101b9610b89565b6101ea6004803603602081101561023e57600080fd5b50356001600160a01b0316610b92565b6101ea6004803603602081101561026457600080fd5b50356001600160a01b0316610bad565b6101af6004803603608081101561028a57600080fd5b506001600160a01b03813581169160208101359091169060408101359060600135610bc8565b6101b9610d68565b6101af60048036036101408110156102cf57600080fd5b6001600160a01b0382351691602081013591810190606081016040820135600160201b8111156102fe57600080fd5b82018360208201111561031057600080fd5b803590602001918460208302840111600160201b8311171561033157600080fd5b9190808060200260200160405190810160405280939291908181526020018383602002808284376000920191909152509295949360208101935035915050600160201b81111561038057600080fd5b82018360208201111561039257600080fd5b803590602001918460208302840111600160201b831117156103b357600080fd5b9190808060200260200160405190810160405280939291908181526020018383602002808284376000920191909152509295949360208101935035915050600160201b81111561040257600080fd5b82018360208201111561041457600080fd5b803590602001918460208302840111600160201b8311171561043557600080fd5b9190808060200260200160405190810160405280939291908181526020018383602002808284376000920191909152509295949360208101935035915050600160201b81111561048457600080fd5b82018360208201111561049657600080fd5b803590602001918460208302840111600160201b831117156104b757600080fd5b9190808060200260200160405190810160405280939291908181526020018383602002808284376000920191909152509295949360208101935035915050600160201b81111561050657600080fd5b82018360208201111561051857600080fd5b803590602001918460208302840111600160201b8311171561053957600080fd5b9190808060200260200160405190810160405280939291908181526020018383602002808284376000920191909152509295949360208101935035915050600160201b81111561058857600080fd5b82018360208201111561059a57600080fd5b803590602001918460208302840111600160201b831117156105bb57600080fd5b9190808060200260200160405190810160405280939291908181526020018383602002808284376000920191909152509295949360208101935035915050600160201b81111561060a57600080fd5b82018360208201111561061c57600080fd5b803590602001918460208302840111600160201b8311171561063d57600080fd5b9190808060200260200160405190810160405280939291908181526020018383602002808284376000920191909152509295949360208101935035915050600160201b81111561068c57600080fd5b82018360208201111561069e57600080fd5b803590602001918460208302840111600160201b831117156106bf57600080fd5b919080806020026020016040519081016040528093929190818152602001838360200280828437600092019190915250929550610d77945050505050565b61020e6004803603602081101561071357600080fd5b50356001600160a01b031661120a565b6101af61121c565b6107cc6004803603602081101561074157600080fd5b810190602081018135600160201b81111561075b57600080fd5b82018360208201111561076d57600080fd5b803590602001918460208302840111600160201b8311171561078e57600080fd5b919080806020026020016040519081016040528093929190818152602001838360200280828437600092019190915250929550611276945050505050565b60408051602080825283518183015283519192839290830191858101910280838360005b838110156108085781810151838201526020016107f0565b505050509050019250505060405180910390f35b6101b96004803603602081101561083257600080fd5b50356001600160a01b031661132e565b6101ea6004803603602081101561085857600080fd5b50356001600160a01b0316611343565b6101b96004803603604081101561087e57600080fd5b506001600160a01b0381351690602001356113b8565b6101ea6113d8565b6101af600480360360608110156108b257600080fd5b506001600160a01b038135811691602081013590911690604001356113e7565b61020e600480360360208110156108e857600080fd5b50356001600160a01b0316611460565b61020e611472565b61020e6004803603604081101561091657600080fd5b506001600160a01b0381358116916020013516611478565b6101af6004803603604081101561094457600080fd5b506001600160a01b038135169060200135611495565b6101b96004803603602081101561097057600080fd5b50356001600160a01b0316611aad565b61020e6004803603604081101561099657600080fd5b506001600160a01b0381358116916020013516611ac2565b61020e600480360360208110156109c457600080fd5b50356001600160a01b0316611adf565b61020e600480360360208110156109ea57600080fd5b50356001600160a01b0316611af1565b6101b960048036036020811015610a1057600080fd5b50356001600160a01b0316611b46565b6101af60048036036060811015610a3657600080fd5b506001600160a01b03813581169160208101359091169060400135611b5b565b6101b960048036036020811015610a6c57600080fd5b5035611cc8565b6101ea60048036036020811015610a8957600080fd5b50356001600160a01b0316611cdd565b61020e611cf8565b6101af60048036036080811015610ab757600080fd5b506001600160a01b03813581169160208101359091169060408101359060600135611cfe565b6101ea611ed9565b6006546001600160a01b03163314610b32576040805162461bcd60e51b815260206004820152601860248201526000805160206125bd833981519152604482015290519081900360640190fd5b60018054911515620100000262ff000019909216919091179055565b600154610100900460ff1681565b60078181548110610b6957fe5b6000918252602090912001546001600160a01b0316905081565b60025481565b60015460ff1681565b600c602052600090815260409020546001600160a01b031681565b6010602052600090815260409020546001600160a01b031681565b60026000541415610c0e576040805162461bcd60e51b815260206004820152601f602482015260008051602061234e833981519152604482015290519081900360640190fd5b60026000556006546001600160a01b03163314610c60576040805162461bcd60e51b815260206004820152601860248201526000805160206125bd833981519152604482015290519081900360640190fd5b6040805166617070726f766560c81b6020808301919091526001600160601b0319606088811b8216602785015287901b16603b830152604f8201859052606f80830185905283518084039091018152608f9092019092528051910120610cc581611ee8565b610cce81611f38565b846001600160a01b031663095ea7b385856040518363ffffffff1660e01b815260040180836001600160a01b0316815260200182815260200192505050602060405180830381600087803b158015610d2557600080fd5b505af1158015610d39573d6000803e3d6000fd5b505050506040513d6020811015610d4f57600080fd5b50610d5c9050818361201e565b50506001600055505050565b60015462010000900460ff1681565b6006546001600160a01b03163314610dc4576040805162461bcd60e51b815260206004820152601860248201526000805160206125bd833981519152604482015290519081900360640190fd5b60015460ff1615610e065760405162461bcd60e51b815260040180806020018281038252602281526020018061236e6022913960400191505060405180910390fd5b8551875114610e465760405162461bcd60e51b81526004018080602001828103825260288152602001806123906028913960400191505060405180910390fd5b8451875114610e865760405162461bcd60e51b81526004018080602001828103825260258152602001806125466025913960400191505060405180910390fd5b8351875114610ec65760405162461bcd60e51b81526004018080602001828103825260238152602001806123da6023913960400191505060405180910390fd5b8151835114610f065760405162461bcd60e51b81526004018080602001828103825260288152602001806125956028913960400191505060405180910390fd5b8051835114610f465760405162461bcd60e51b81526004018080602001828103825260288152602001806124b06028913960400191505060405180910390fd5b6001805460ff191681179055600380546001600160a01b0319166001600160a01b038c1617905560048990558751610f859060079060208b01906122c9565b5060005b8851811015610fdc576000898281518110610fa057fe5b6020908102919091018101516001600160a01b03166000908152600890915260409020805460ff19166001908117909155919091019050610f89565b5060005b8751811015611100576000888281518110610ff757fe5b6020908102919091018101516001600160a01b0381166000908152600b9092526040909120805460ff19166001179055885190915088908390811061103857fe5b6020026020010151600c6000836001600160a01b03166001600160a01b0316815260200190815260200160002060006101000a8154816001600160a01b0302191690836001600160a01b0316021790555086828151811061109557fe5b6020026020010151600d6000836001600160a01b03166001600160a01b03168152602001908152602001600020819055508582815181106110d257fe5b6020908102919091018101516001600160a01b039092166000908152600e9091526040902055600101610fe0565b5060005b83518110156111fd57600084828151811061111b57fe5b6020908102919091018101516001600160a01b0381166000908152600f9092526040909120805460ff19166001179055845190915084908390811061115c57fe5b602002602001015160106000836001600160a01b03166001600160a01b0316815260200190815260200160002060006101000a8154816001600160a01b0302191690836001600160a01b031602179055508282815181106111b957fe5b6020908102919091018101516001600160a01b0392831660009081526011909252604090912080546001600160a01b03191692909116919091179055600101611104565b5050505050505050505050565b600e6020526000908152604090205481565b6006546001600160a01b03163314611269576040805162461bcd60e51b815260206004820152601860248201526000805160206125bd833981519152604482015290519081900360640190fd5b6001805461ff0019169055565b60608082516001600160401b038111801561129057600080fd5b506040519080825280602002602001820160405280156112ba578160200160208202803683370190505b50905060005b83518110156113275760008482815181106112d757fe5b6020026020010151905060126000826001600160a01b03166001600160a01b031681526020019081526020016000205483838151811061131357fe5b6020908102919091010152506001016112c0565b5092915050565b60086020526000908152604090205460ff1681565b6001600160a01b038082166000908152600c6020526040812054909116806113b2576040805162461bcd60e51b815260206004820181905260248201527f556e6974794d69677261746f723a20696e76616c696420696f7520746f6b656e604482015290519081900360640190fd5b92915050565b600a60209081526000928352604080842090915290825290205460ff1681565b6003546001600160a01b031681565b6006546001600160a01b03163314611434576040805162461bcd60e51b815260206004820152601860248201526000805160206125bd833981519152604482015290519081900360640190fd5b6001600160a01b0392831660009081526014602090815260408083209490951682529290925291902055565b60126020526000908152604090205481565b60055481565b601360209081526000928352604080842090915290825290205481565b600260005414156114db576040805162461bcd60e51b815260206004820152601f602482015260008051602061234e833981519152604482015290519081900360640190fd5b6002600055600154610100900460ff166115265760405162461bcd60e51b815260040180806020018281038252602c8152602001806124d8602c913960400191505060405180910390fd5b6001600160a01b0382166000908152600b602052604090205460ff1661157d5760405162461bcd60e51b81526004018080602001828103825260248152602001806125dd6024913960400191505060405180910390fd5b600081116115bc5760405162461bcd60e51b81526004018080602001828103825260228152602001806123b86022913960400191505060405180910390fd5b60015462010000900460ff1615611677573360009081526013602090815260408083206001600160a01b03861684529091529020546115fb90826120d7565b3360008181526013602090815260408083206001600160a01b038816808552818452828520879055948452601483528184209484529382529091205491905210156116775760405162461bcd60e51b815260040180806020018281038252602a81526020018061256b602a913960400191505060405180910390fd5b600061168283611af1565b905060006116a560045461169f848661213690919063ffffffff16565b9061218f565b9050600081116116e65760405162461bcd60e51b81526004018080602001828103825260218152602001806125256021913960400191505060405180910390fd5b6001600160a01b03841660009081526012602052604090205461170990846120d7565b6001600160a01b0385166000908152601260208181526040808420859055600e82529092205491521161176d5760405162461bcd60e51b81526004018080602001828103825260218152602001806123fd6021913960400191505060405180910390fd5b604080516323b872dd60e01b81523360048201523060248201526044810185905290516001600160a01b038616916323b872dd9160648083019260209291908290030181600087803b1580156117c257600080fd5b505af11580156117d6573d6000803e3d6000fd5b505050506040513d60208110156117ec57600080fd5b50506001600160a01b0384166000908152600f602052604090205460ff1615611a11576001600160a01b0380851660009081526010602090815260408083205460119092529091205490821691168161188c576040805162461bcd60e51b815260206004820152601d60248201527f556e6974794d69677261746f723a20696e76616c696420746f6b656e41000000604482015290519081900360640190fd5b6001600160a01b0381166118e7576040805162461bcd60e51b815260206004820152601d60248201527f556e6974794d69677261746f723a20696e76616c696420746f6b656e42000000604482015290519081900360640190fd5b6003546040805163095ea7b360e01b81526001600160a01b0392831660048201526024810188905290519188169163095ea7b3916044808201926020929091908290030181600087803b15801561193d57600080fd5b505af1158015611951573d6000803e3d6000fd5b505050506040513d602081101561196757600080fd5b505060035460408051635d5155ef60e11b81526001600160a01b038581166004830152848116602483015260448201899052600060648301819052608483018190523060a48401524260c48401528351919094169363baa2abde9360e480850194919392918390030190829087803b1580156119e257600080fd5b505af11580156119f6573d6000803e3d6000fd5b505050506040513d6040811015611a0c57600080fd5b505050505b6000611a1c85611343565b9050806001600160a01b03166340c10f1933846040518363ffffffff1660e01b815260040180836001600160a01b0316815260200182815260200192505050602060405180830381600087803b158015611a7557600080fd5b505af1158015611a89573d6000803e3d6000fd5b505050506040513d6020811015611a9f57600080fd5b505060016000555050505050565b600f6020526000908152604090205460ff1681565b601460209081526000928352604080842090915290825290205481565b600d6020526000908152604090205481565b6001600160a01b0381166000908152600d6020526040812054806113b25760405162461bcd60e51b815260040180806020018281038252602281526020018061248e6022913960400191505060405180910390fd5b600b6020526000908152604090205460ff1681565b60026000541415611ba1576040805162461bcd60e51b815260206004820152601f602482015260008051602061234e833981519152604482015290519081900360640190fd5b60026000556006546001600160a01b03163314611bf3576040805162461bcd60e51b815260206004820152601860248201526000805160206125bd833981519152604482015290519081900360640190fd5b60058054600101908190556040805166617070726f766560c81b6020808301919091526001600160601b0319606088811b8216602785015287901b16603b830152604f8201859052606f80830185905283518084039091018152608f9092019092528051910120611c6481836121ce565b604080516001600160a01b03808816825286166020820152808201859052606081018390526080810184905290517fc19251bf5f704ddc3d5babe6f4e5bde0dded20b19f7844716861821ab3163cd79181900360a00190a150506001600055505050565b60096020526000908152604090205460ff1681565b6011602052600090815260409020546001600160a01b031681565b60045481565b60026000541415611d44576040805162461bcd60e51b815260206004820152601f602482015260008051602061234e833981519152604482015290519081900360640190fd5b600260009081553381526008602052604090205460ff16611d9a576040805162461bcd60e51b815260206004820152601860248201526000805160206125bd833981519152604482015290519081900360640190fd5b6040805166617070726f766560c81b6020808301919091526001600160601b0319606088811b8216602785015287901b16603b830152604f8201859052606f80830185905283518084039091018152608f9092019092528051910120611dff81611ee8565b336000908152600a6020908152604080832084845290915290205460ff1615611e6f576040805162461bcd60e51b815260206004820152601d60248201527f556e6974794d69677261746f723a20616c7265616479207369676e6564000000604482015290519081900360640190fd5b336000908152600a60209081526040808320848452825291829020805460ff19166001179055815183815290810184905281517faae28fe5531fe5dfb8d12409392ec67b50c825dd06233312cb6aeaddd16cbd22929181900390910190a150506001600055505050565b6006546001600160a01b031681565b60008181526009602052604090205460ff16611f355760405162461bcd60e51b81526004018080602001828103825260238152602001806124476023913960400191505060405180910390fd5b50565b6000805b600754811015611f9c57600060078281548110611f5557fe5b60009182526020808320909101546001600160a01b0316808352600a8252604080842088855290925291205490915060ff1615611f93576001909201915b50600101611f3c565b5080611fd95760405162461bcd60e51b815260040180806020018281038252602481526020018061246a6024913960400191505060405180910390fd5b60025481101561201a5760405162461bcd60e51b815260040180806020018281038252602981526020018061241e6029913960400191505060405180910390fd5b5050565b60008281526009602052604090205460ff16612081576040805162461bcd60e51b815260206004820152601e60248201527f556e6974794d69677261746f723a20696e76616c6964205f616374696f6e0000604482015290519081900360640190fd5b600082815260096020908152604091829020805460ff19169055815184815290810183905281517ff4640d39061e643d9b802cb3725953405344555ad6dbb1cbdb0495f3eccb8e68929181900390910190a15050565b60008282018381101561212f576040805162461bcd60e51b815260206004820152601b60248201527a536166654d6174683a206164646974696f6e206f766572666c6f7760281b604482015290519081900360640190fd5b9392505050565b600082612145575060006113b2565b8282028284828161215257fe5b041461212f5760405162461bcd60e51b81526004018080602001828103825260218152602001806125046021913960400191505060405180910390fd5b600061212f83836040518060400160405280601a815260200179536166654d6174683a206469766973696f6e206279207a65726f60301b815250612227565b600082815260096020908152604091829020805460ff19166001179055815184815290810183905281517f64df01c46eb530dc540770a0b88cc32f0b8c2b371a546ae0b13cc8ca6671fff9929181900390910190a15050565b600081836122b35760405162461bcd60e51b81526004018080602001828103825283818151815260200191508051906020019080838360005b83811015612278578181015183820152602001612260565b50505050905090810190601f1680156122a55780820380516001836020036101000a031916815260200191505b509250505060405180910390fd5b5060008385816122bf57fe5b0495945050505050565b82805482825590600052602060002090810192821561231e579160200282015b8281111561231e57825182546001600160a01b0319166001600160a01b039091161782556020909201916001909101906122e9565b5061232a92915061232e565b5090565b5b8082111561232a5780546001600160a01b031916815560010161232f56fe5265656e7472616e637947756172643a207265656e7472616e742063616c6c00556e6974794d69677261746f723a20616c726561647920696e697469616c697a6564556e6974794d69677261746f723a20696e76616c6964205f696f75546f6b656e732e6c656e677468556e6974794d69677261746f723a20696e76616c696420746f6b656e416d6f756e74556e6974794d69677261746f723a20696e76616c6964205f636170732e6c656e677468556e6974794d69677261746f723a20746f6b656e20636170206578636565646564556e6974794d69677261746f723a20696e73756666696369656e7420617574686f72697a6174696f6e556e6974794d69677261746f723a20616374696f6e206e6f74207369676e616c6c6564556e6974794d69677261746f723a20616374696f6e206e6f7420617574686f72697a6564556e6974794d69677261746f723a20696e76616c696420746f6b656e207072696365556e6974794d69677261746f723a20696e76616c6964205f6c70546f6b656e42732e6c656e677468556e6974794d69677261746f723a206d6967726174696f6e206973206e6f206c6f6e67657220616374697665536166654d6174683a206d756c7469706c69636174696f6e206f766572666c6f77556e6974794d69677261746f723a20696e76616c6964206d696e74416d6f756e74556e6974794d69677261746f723a20696e76616c6964205f7072696365732e6c656e677468556e6974794d69677261746f723a206d61784d6967726174696f6e416d6f756e74206578636565646564556e6974794d69677261746f723a20696e76616c6964205f6c70546f6b656e41732e6c656e677468556e6974794d69677261746f723a20666f7262696464656e0000000000000000556e6974794d69677261746f723a20746f6b656e206e6f742077686974656c6973746564a2646970667358221220a6a17f81be95ffefc22d1921765cd13048fab88e8350a7d4aab386b1f10903b164736f6c634300060c0033",
  "linkReferences": {},
  "deployedLinkReferences": {}
}